:020000040800F2
:10000000680600205D01000865010008670100081E
:10001000690100086B0100086D0100080000000084
:100020000000000000000000000000006F01000858
:10003000710100080000000073010008750100084C
:100040007701000877010008770100080000000030
:100050000000000077010008770100087701000820
:100060007701000800000000770100087701000810
:100070007701000800000000770100087701000800
:1000800077010008770100080000000077010008F0
:1000900077010008000000000000000000000000E0
:1000A00000000000000000000000000077010008D0
:1000B0007701000877010008770100087701000840
:1000C00000F002F800F03AF80AA090E8000C824430
:1000D0008344AAF10107DA4501D100F02FF8AFF20D
:1000E000090EBAE80F0013F0010F18BFFB1A43F016
:1000F000010318476802000088020000103A24BF7C
:1001000078C878C1FAD8520724BF30C830C144BF7C
:1001100004680C60704700000023002400250026BE
:10012000103A28BF78C1FBD8520728BF30C148BF5A
:100130000B6070471FB51FBD10B510BD00F031F842
:100140001146FFF7F7FF00F0CFF800F04FF803B4C7
:10015000FFF7F2FF03BC00F057F8000009488047A2
:1001600009480047FEE7FEE7FEE7FEE7FEE7FEE799
:10017000FEE7FEE7FEE7FEE704480549054A064BB1
:1001800070470000A9020008C100000868000020B4
:10019000680600206802002068020020704770474F
:1001A0007047754600F02CF8AE4605006946534688
:1001B00020F00700854618B020B5FFF7DDFFBDE849
:1001C00020404FF000064FF000074FF000084FF0BE
:1001D000000B21F00701AC46ACE8C009ACE8C0094F
:1001E000ACE8C009ACE8C0098D46704710B50446BC
:1001F000AFF300802046BDE81040FFF7A8BF000025
:10020000004870470800002001491820ABBEFEE7F7
:10021000260002007047000030B5204CE46804F06E
:100220000204022C01D11E4800E01D481B4CE4686A
:1002300004F0010404B140080146184CE46804F0DD
:100240000404042C05D1154C6468C4F30324631C16
:100250005943124CE468C4F3012424B1012C06D0A4
:10026000022C13D10DE00E4C0E4D2C6013E00B4C04
:10027000E468C4F30314641CB1FBF4F2094C22607B
:1002800009E04FF40044074D2C6004E049F6404477
:10029000044D2C6000BF00BF30BD000000000240D4
:1002A00000127A000400002000B50D480D49C86115
:1002B0000846C0680020C8600846406800204860C2
:1002C00008468068002088600846006900200861B0
:1002D0000846406900204861FFF79EFF00BD00000E
:1002E000100000080000024000B51448007820F01B
:1002F0000100401C114908700846007820F00100F8
:100300000870002000F024F8002000F01BF80C48D2
:10031000007840F001000A4908700846007820F093
:10032000010008700846007880F001000870084657
:10033000007880F001000870002000BD000000205F
:10034000010000200022810001F108510A6070477D
:100350000122810001F108510A6070477C03000806
:100360000000002008000000FC00000884030008D2
:1003700008000020600600001801000800040000CA
:0403800000127A00ED
:040000050800015D91
:00000001FF
